{"abi":[{"type":"constructor","inputs":[],"stateMutability":"nonpayable"},{"type":"function","name":"addQuiz","inputs":[{"name":"q","type":"tuple","internalType":"struct Quiz.Quiz_item","components":[{"name":"id","type":"uint256","internalType":"uint256"},{"name":"question","type":"string","internalType":"string"},{"name":"answer","type":"string","internalType":"string"},{"name":"min_bet","type":"uint256","internalType":"uint256"},{"name":"max_bet","type":"uint256","internalType":"uint256"}]}],"outputs":[],"stateMutability":"nonpayable"},{"type":"function","name":"betToPlay","inputs":[{"name":"quizId","type":"uint256","internalType":"uint256"}],"outputs":[],"stateMutability":"payable"},{"type":"function","name":"bets","inputs":[{"name":"","type":"uint256","internalType":"uint256"},{"name":"","type":"address","internalType":"address"}],"outputs":[{"name":"","type":"uint256","internalType":"uint256"}],"stateMutability":"view"},{"type":"function","name":"claim","inputs":[],"outputs":[],"stateMutability":"nonpayable"},{"type":"function","name":"getAnswer","inputs":[{"name":"quizId","type":"uint256","internalType":"uint256"}],"outputs":[{"name":"","type":"string","internalType":"string"}],"stateMutability":"view"},{"type":"function","name":"getQuiz","inputs":[{"name":"quizId","type":"uint256","internalType":"uint256"}],"outputs":[{"name":"","type":"tuple","internalType":"struct Quiz.Quiz_item","components":[{"name":"id","type":"uint256","internalType":"uint256"},{"name":"question","type":"string","internalType":"string"},{"name":"answer","type":"string","internalType":"string"},{"name":"min_bet","type":"uint256","internalType":"uint256"},{"name":"max_bet","type":"uint256","internalType":"uint256"}]}],"stateMutability":"view"},{"type":"function","name":"getQuizNum","inputs":[],"outputs":[{"name":"","type":"uint256","internalType":"uint256"}],"stateMutability":"view"},{"type":"function","name":"solveQuiz","inputs":[{"name":"quizId","type":"uint256","internalType":"uint256"},{"name":"ans","type":"string","internalType":"string"}],"outputs":[{"name":"","type":"bool","internalType":"bool"}],"stateMutability":"nonpayable"},{"type":"function","name":"vault_balance","inputs":[],"outputs":[{"name":"","type":"uint256","internalType":"uint256"}],"stateMutability":"view"}],"bytecode":{"object":"0x6080604052348015600e575f5ffd5b50603d6040518060a001604052805f815260200160608152602001606081526020015f81526020015f81525090565b60018082526040805180820182526005815264312b313d3f60d81b6020808301919091528085019190915281518083018352928352601960f91b90830152820152670de0b6b3a76400006060820152671bc16d674ec800006080820152506104f6806100a85f395ff3fe608060405260043610610084575f3560e01c8063a3f7e09611610057578063a3f7e09614610101578063b5ab58dc1461012d578063c0da916f1461015a578063f101b3f11461016c578063f644b3bb14610186575f5ffd5b80634e71d92d1461008857806354c63f82146100975780637487361f146100a85780638f7b0961146100de575b5f5ffd5b348015610093575f5ffd5b505b005b6100956100a5366004610203565b50565b3480156100b3575f5ffd5b506100c96100c23660046102e2565b5f92915050565b60405190151581526020015b60405180910390f35b3480156100e9575f5ffd5b506100f360015481565b6040519081526020016100d5565b34801561010c575f5ffd5b5061012061011b366004610203565b6101a5565b6040516100d59190610354565b348015610138575f5ffd5b5061014d610147366004610203565b50606090565b6040516100d591906103b7565b348015610165575f5ffd5b505f6100f3565b348015610177575f5ffd5b506100956100a53660046103d0565b348015610191575f5ffd5b506100f36101a0366004610487565b6101d9565b6101d46040518060a001604052805f815260200160608152602001606081526020015f81526020015f81525090565b919050565b5f82815481106101e7575f80fd5b905f5260205f2001602052805f5260405f205f91509150505481565b5f60208284031215610213575f5ffd5b5035919050565b634e487b7160e01b5f52604160045260245ffd5b60405160a0810167ffffffffffffffff811182821017156102515761025161021a565b60405290565b5f82601f830112610266575f5ffd5b813567ffffffffffffffff8111156102805761028061021a565b604051601f8201601f19908116603f0116810167ffffffffffffffff811182821017156102af576102af61021a565b6040528181528382016020018510156102c6575f5ffd5b816020850160208301375f918101602001919091529392505050565b5f5f604083850312156102f3575f5ffd5b82359150602083013567ffffffffffffffff811115610310575f5ffd5b61031c85828601610257565b9150509250929050565b5f81518084528060208401602086015e5f602082860101526020601f19601f83011685010191505092915050565b60208152815160208201525f602083015160a0604084015261037960c0840182610326565b90506040840151601f198483030160608501526103968282610326565b91505060608401516080840152608084015160a08401528091505092915050565b602081525f6103c96020830184610326565b9392505050565b5f602082840312156103e0575f5ffd5b813567ffffffffffffffff8111156103f6575f5ffd5b820160a08185031215610407575f5ffd5b61040f61022e565b81358152602082013567ffffffffffffffff81111561042c575f5ffd5b61043886828501610257565b602083015250604082013567ffffffffffffffff811115610457575f5ffd5b61046386828501610257565b60408301525060608281013590820152608091820135918101919091529392505050565b5f5f60408385031215610498575f5ffd5b8235915060208301356001600160a01b03811681146104b5575f5ffd5b80915050925092905056fea2646970667358221220e4d105c46bf694d81b6c29064f73eba9734eb3274e7dcf46f8bd656e67bdd7a764736f6c634300081c0033","linkReferences":{}},"methodIdentifiers":{"addQuiz((uint256,string,string,uint256,uint256))":"f101b3f1","betToPlay(uint256)":"54c63f82","bets(uint256,address)":"f644b3bb","claim()":"4e71d92d","getAnswer(uint256)":"b5ab58dc","getQuiz(uint256)":"a3f7e096","getQuizNum()":"c0da916f","solveQuiz(uint256,string)":"7487361f","vault_balance()":"8f7b0961"},"id":18}