{"abi":[{"type":"constructor","inputs":[],"stateMutability":"payable"},{"type":"receive","stateMutability":"payable"},{"type":"function","name":"addQuiz","inputs":[{"name":"q","type":"tuple","internalType":"struct Quiz.Quiz_item","components":[{"name":"id","type":"uint256","internalType":"uint256"},{"name":"question","type":"string","internalType":"string"},{"name":"answer","type":"string","internalType":"string"},{"name":"min_bet","type":"uint256","internalType":"uint256"},{"name":"max_bet","type":"uint256","internalType":"uint256"}]}],"outputs":[],"stateMutability":"nonpayable"},{"type":"function","name":"betToPlay","inputs":[{"name":"quizId","type":"uint256","internalType":"uint256"}],"outputs":[],"stateMutability":"payable"},{"type":"function","name":"bets","inputs":[{"name":"","type":"uint256","internalType":"uint256"},{"name":"","type":"address","internalType":"address"}],"outputs":[{"name":"","type":"uint256","internalType":"uint256"}],"stateMutability":"view"},{"type":"function","name":"claim","inputs":[],"outputs":[],"stateMutability":"payable"},{"type":"function","name":"getAnswer","inputs":[{"name":"quizId","type":"uint256","internalType":"uint256"}],"outputs":[{"name":"","type":"string","internalType":"string"}],"stateMutability":"view"},{"type":"function","name":"getQuiz","inputs":[{"name":"quizId","type":"uint256","internalType":"uint256"}],"outputs":[{"name":"","type":"tuple","internalType":"struct Quiz.Quiz_item","components":[{"name":"id","type":"uint256","internalType":"uint256"},{"name":"question","type":"string","internalType":"string"},{"name":"answer","type":"string","internalType":"string"},{"name":"min_bet","type":"uint256","internalType":"uint256"},{"name":"max_bet","type":"uint256","internalType":"uint256"}]}],"stateMutability":"nonpayable"},{"type":"function","name":"getQuizNum","inputs":[],"outputs":[{"name":"","type":"uint256","internalType":"uint256"}],"stateMutability":"view"},{"type":"function","name":"owner","inputs":[],"outputs":[{"name":"","type":"address","internalType":"address"}],"stateMutability":"view"},{"type":"function","name":"quizzes","inputs":[{"name":"","type":"uint256","internalType":"uint256"}],"outputs":[{"name":"id","type":"uint256","internalType":"uint256"},{"name":"question","type":"string","internalType":"string"},{"name":"answer","type":"string","internalType":"string"},{"name":"min_bet","type":"uint256","internalType":"uint256"},{"name":"max_bet","type":"uint256","internalType":"uint256"}],"stateMutability":"view"},{"type":"function","name":"solveQuiz","inputs":[{"name":"quizId","type":"uint256","internalType":"uint256"},{"name":"ans","type":"string","internalType":"string"}],"outputs":[{"name":"","type":"bool","internalType":"bool"}],"stateMutability":"nonpayable"},{"type":"function","name":"vault_balance","inputs":[],"outputs":[{"name":"","type":"uint256","internalType":"uint256"}],"stateMutability":"view"}],"bytecode":{"object":"0x5f80546001600160a01b0319163317905560016080818152600561012090815264312b313d3f60d81b6101405260a0526101a0604052610160918252601960f91b6101805260c091909152670de0b6b3a764000060e052671bc16d674ec800006101005261006c8161010e565b61009b6040518060a001604052805f815260200160608152602001606081526020015f81526020015f81525090565b600181526040805180820182526005815264312b313d3f60d81b6020808301919091528084019190915281518083018352600381526231323360e81b9181019190915290820152670de0b6b3a76400006060820152671bc16d674ec8000060808201526101078161010e565b505061035d565b5f546001600160a01b0316331461016b5760405162461bcd60e51b815260206004820152601760248201527f4f6e6c79206f6e7765722063616e20616464207175697a000000000000000000604482015260640160405180910390fd5b600380546001810182555f91909152815160059091027fc2575a0e9e593c00f959f8c92f12db2869c3395a3b0502d05e2516446f71f85b810191825560208301518392917fc2575a0e9e593c00f959f8c92f12db2869c3395a3b0502d05e2516446f71f85c01906101dc90826102a3565b50604082015160028201906101f190826102a3565b506060820151816003015560808201518160040155505050565b634e487b7160e01b5f52604160045260245ffd5b600181811c9082168061023357607f821691505b60208210810361025157634e487b7160e01b5f52602260045260245ffd5b50919050565b601f82111561029e57805f5260205f20601f840160051c8101602085101561027c5750805b601f840160051c820191505b8181101561029b575f8155600101610288565b50505b505050565b81516001600160401b038111156102bc576102bc61020b565b6102d0816102ca845461021f565b84610257565b6020601f821160018114610302575f83156102eb5750848201515b5f19600385901b1c1916600184901b17845561029b565b5f84815260208120601f198516915b828110156103315787850151825560209485019460019092019101610311565b508482101561034e57868401515f19600387901b60f8161c191681555b50505050600190811b01905550565b6110f78061036a5f395ff3fe60806040526004361061009d575f3560e01c80638f7b0961116100625780638f7b09611461019c578063a3f7e096146101bf578063b5ab58dc146101eb578063c0da916f14610217578063f101b3f11461022b578063f644b3bb1461024a575f5ffd5b80634e71d92d146100e757806354c63f82146100ef5780637487361f1461010257806388409afa146101365780638da5cb5b14610166575f5ffd5b366100e3576100e16040518060400160405280601781526020017f436f6e7472616374207265636569766564204554483a2000000000000000000081525034610280565b005b5f5ffd5b6100e16102c9565b6100e16100fd366004610b79565b61037e565b34801561010d575f5ffd5b5061012161011c366004610c58565b61049b565b60405190151581526020015b60405180910390f35b348015610141575f5ffd5b50610155610150366004610b79565b610619565b60405161012d959493929190610cca565b348015610171575f5ffd5b505f54610184906001600160a01b031681565b6040516001600160a01b03909116815260200161012d565b3480156101a7575f5ffd5b506101b160025481565b60405190815260200161012d565b3480156101ca575f5ffd5b506101de6101d9366004610b79565b610765565b60405161012d9190610d09565b3480156101f6575f5ffd5b5061020a610205366004610b79565b610940565b60405161012d9190610d6c565b348015610222575f5ffd5b506101b16109fc565b348015610236575f5ffd5b506100e1610245366004610d85565b610a12565b348015610255575f5ffd5b506101b1610264366004610e3c565b600160209081525f928352604080842090915290825290205481565b6102c58282604051602401610296929190610e75565b60408051601f198184030181529190526020810180516001600160e01b0316632d839cb360e21b179052610b0b565b5050565b335f9081527fa6eef7e35abe7026729641147f7915573c7e97b47efa546f5f6e3230263bcb49602052604081205490610303826002610eaa565b335f8181527fa6eef7e35abe7026729641147f7915573c7e97b47efa546f5f6e3230263bcb496020526040808220829055519293504792849181818185875af1925050503d805f8114610371576040519150601f19603f3d011682016040523d82523d5f602084013e610376565b606091505b505050505050565b6003818154811061039157610391610ec1565b905f5260205f209060050201600301543410156103e35760405162461bcd60e51b815260206004820152600b60248201526a42657420746f6f206c6f7760a81b60448201526064015b60405180910390fd5b600381815481106103f6576103f6610ec1565b905f5260205f209060050201600401543411156104495760405162461bcd60e51b815260206004820152601160248201527010995d08195e18d959591cc81b1a5b5a5d607a1b60448201526064016103da565b3460015f6104578285610ed5565b81526020019081526020015f205f336001600160a01b03166001600160a01b031681526020019081526020015f205f8282546104939190610ee8565b909155505050565b5f816040516020016104ad9190610efb565b6040516020818303038152906040528051906020012060036001856104d29190610ed5565b815481106104e2576104e2610ec1565b905f5260205f2090600502016002016040516020016105019190610f49565b604051602081830303815290604052805190602001200361052457506001610613565b6105496040518060400160405280600481526020016315195cdd60e21b815250610b17565b6003610556600185610ed5565b8154811061056657610566610ec1565b905f5260205f2090600502016003015460015f6001866105869190610ed5565b81526020019081526020015f205f336001600160a01b03166001600160a01b031681526020019081526020015f205f8282546105c29190610ed5565b90915550600390506105d5600185610ed5565b815481106105e5576105e5610ec1565b905f5260205f2090600502016003015460025f8282546106059190610ee8565b909155505f91506106139050565b92915050565b60038181548110610628575f80fd5b5f918252602090912060059091020180546001820180549193509061064c90610f11565b80601f016020809104026020016040519081016040528092919081815260200182805461067890610f11565b80156106c35780601f1061069a576101008083540402835291602001916106c3565b820191905f5260205f20905b8154815290600101906020018083116106a657829003601f168201915b5050505050908060020180546106d890610f11565b80601f016020809104026020016040519081016040528092919081815260200182805461070490610f11565b801561074f5780601f106107265761010080835404028352916020019161074f565b820191905f5260205f20905b81548152906001019060200180831161073257829003601f168201915b5050505050908060030154908060040154905085565b6107946040518060a001604052805f815260200160608152602001606081526020015f81526020015f81525090565b60405180602001604052805f815250600383815481106107b6576107b6610ec1565b905f5260205f20906005020160020190816107d19190611006565b50600382815481106107e5576107e5610ec1565b905f5260205f2090600502016040518060a00160405290815f820154815260200160018201805461081590610f11565b80601f016020809104026020016040519081016040528092919081815260200182805461084190610f11565b801561088c5780601f106108635761010080835404028352916020019161088c565b820191905f5260205f20905b81548152906001019060200180831161086f57829003601f168201915b505050505081526020016002820180546108a590610f11565b80601f01602080910402602001604051908101604052809291908181526020018280546108d190610f11565b801561091c5780601f106108f35761010080835404028352916020019161091c565b820191905f5260205f20905b8154815290600101906020018083116108ff57829003601f168201915b50505050508152602001600382015481526020016004820154815250509050919050565b6060600361094f600184610ed5565b8154811061095f5761095f610ec1565b905f5260205f209060050201600201805461097990610f11565b80601f01602080910402602001604051908101604052809291908181526020018280546109a590610f11565b80156109f05780601f106109c7576101008083540402835291602001916109f0565b820191905f5260205f20905b8154815290600101906020018083116109d357829003601f168201915b50505050509050919050565b6003545f90610a0d90600190610ed5565b905090565b5f546001600160a01b03163314610a6b5760405162461bcd60e51b815260206004820152601760248201527f4f6e6c79206f6e7765722063616e20616464207175697a00000000000000000060448201526064016103da565b600380546001810182555f91909152815160059091027fc2575a0e9e593c00f959f8c92f12db2869c3395a3b0502d05e2516446f71f85b810191825560208301518392917fc2575a0e9e593c00f959f8c92f12db2869c3395a3b0502d05e2516446f71f85c0190610adc9082611006565b5060408201516002820190610af19082611006565b506060820151816003015560808201518160040155505050565b610b1481610b5a565b50565b610b1481604051602401610b2b9190610d6c565b60408051601f198184030181529190526020810180516001600160e01b031663104c13eb60e21b179052610b0b565b5f6a636f6e736f6c652e6c6f6790505f5f835160208501845afa505050565b5f60208284031215610b89575f5ffd5b5035919050565b634e487b7160e01b5f52604160045260245ffd5b60405160a0810167ffffffffffffffff81118282101715610bc757610bc7610b90565b60405290565b5f82601f830112610bdc575f5ffd5b813567ffffffffffffffff811115610bf657610bf6610b90565b604051601f8201601f19908116603f0116810167ffffffffffffffff81118282101715610c2557610c25610b90565b604052818152838201602001851015610c3c575f5ffd5b816020850160208301375f918101602001919091529392505050565b5f5f60408385031215610c69575f5ffd5b82359150602083013567ffffffffffffffff811115610c86575f5ffd5b610c9285828601610bcd565b9150509250929050565b5f81518084528060208401602086015e5f602082860101526020601f19601f83011685010191505092915050565b85815260a060208201525f610ce260a0830187610c9c565b8281036040840152610cf48187610c9c565b60608401959095525050608001529392505050565b60208152815160208201525f602083015160a06040840152610d2e60c0840182610c9c565b90506040840151601f19848303016060850152610d4b8282610c9c565b91505060608401516080840152608084015160a08401528091505092915050565b602081525f610d7e6020830184610c9c565b9392505050565b5f60208284031215610d95575f5ffd5b813567ffffffffffffffff811115610dab575f5ffd5b820160a08185031215610dbc575f5ffd5b610dc4610ba4565b81358152602082013567ffffffffffffffff811115610de1575f5ffd5b610ded86828501610bcd565b602083015250604082013567ffffffffffffffff811115610e0c575f5ffd5b610e1886828501610bcd565b60408301525060608281013590820152608091820135918101919091529392505050565b5f5f60408385031215610e4d575f5ffd5b8235915060208301356001600160a01b0381168114610e6a575f5ffd5b809150509250929050565b604081525f610e876040830185610c9c565b90508260208301529392505050565b634e487b7160e01b5f52601160045260245ffd5b808202811582820484141761061357610613610e96565b634e487b7160e01b5f52603260045260245ffd5b8181038181111561061357610613610e96565b8082018082111561061357610613610e96565b5f82518060208501845e5f920191825250919050565b600181811c90821680610f2557607f821691505b602082108103610f4357634e487b7160e01b5f52602260045260245ffd5b50919050565b5f5f8354610f5681610f11565b600182168015610f6d5760018114610f8257610faf565b60ff1983168652811515820286019350610faf565b865f5260205f205f5b83811015610fa757815488820152600190910190602001610f8b565b505081860193505b509195945050505050565b601f82111561100157805f5260205f20601f840160051c81016020851015610fdf5750805b601f840160051c820191505b81811015610ffe575f8155600101610feb565b50505b505050565b815167ffffffffffffffff81111561102057611020610b90565b6110348161102e8454610f11565b84610fba565b6020601f821160018114611066575f831561104f5750848201515b5f19600385901b1c1916600184901b178455610ffe565b5f84815260208120601f198516915b828110156110955787850151825560209485019460019092019101611075565b50848210156110b257868401515f19600387901b60f8161c191681555b50505050600190811b0190555056fea2646970667358221220d28c9d027539c88d73761ea837e0a7717a086555ad277a929343cbddb4969a6364736f6c634300081c0033","linkReferences":{}},"methodIdentifiers":{"addQuiz((uint256,string,string,uint256,uint256))":"f101b3f1","betToPlay(uint256)":"54c63f82","bets(uint256,address)":"f644b3bb","claim()":"4e71d92d","getAnswer(uint256)":"b5ab58dc","getQuiz(uint256)":"a3f7e096","getQuizNum()":"c0da916f","owner()":"8da5cb5b","quizzes(uint256)":"88409afa","solveQuiz(uint256,string)":"7487361f","vault_balance()":"8f7b0961"},"id":18}